{
  "_format": "hh-sol-artifact-1",
  "contractName": "PharmaNFT",
  "sourceName": "contracts/PharmaNFT.sol",
  "abi": [
    {
      "inputs": [],
      "stateMutability": "nonpayable",
      "type": "constructor"
    },
    {
      "inputs": [
        {
          "internalType": "address",
          "name": "sender",
          "type": "address"
        },
        {
          "internalType": "uint256",
          "name": "tokenId",
          "type": "uint256"
        },
        {
          "internalType": "address",
          "name": "owner",
          "type": "address"
        }
      ],
      "name": "ERC721IncorrectOwner",
      "type": "error"
    },
    {
      "inputs": [
        {
          "internalType": "address",
          "name": "operator",
          "type": "address"
        },
        {
          "internalType": "uint256",
          "name": "tokenId",
          "type": "uint256"
        }
      ],
      "name": "ERC721InsufficientApproval",
      "type": "error"
    },
    {
      "inputs": [
        {
          "internalType": "address",
          "name": "approver",
          "type": "address"
        }
      ],
      "name": "ERC721InvalidApprover",
      "type": "error"
    },
    {
      "inputs": [
        {
          "internalType": "address",
          "name": "operator",
          "type": "address"
        }
      ],
      "name": "ERC721InvalidOperator",
      "type": "error"
    },
    {
      "inputs": [
        {
          "internalType": "address",
          "name": "owner",
          "type": "address"
        }
      ],
      "name": "ERC721InvalidOwner",
      "type": "error"
    },
    {
      "inputs": [
        {
          "internalType": "address",
          "name": "receiver",
          "type": "address"
        }
      ],
      "name": "ERC721InvalidReceiver",
      "type": "error"
    },
    {
      "inputs": [
        {
          "internalType": "address",
          "name": "sender",
          "type": "address"
        }
      ],
      "name": "ERC721InvalidSender",
      "type": "error"
    },
    {
      "inputs": [
        {
          "internalType": "uint256",
          "name": "tokenId",
          "type": "uint256"
        }
      ],
      "name": "ERC721NonexistentToken",
      "type": "error"
    },
    {
      "inputs": [
        {
          "internalType": "address",
          "name": "owner",
          "type": "address"
        }
      ],
      "name": "OwnableInvalidOwner",
      "type": "error"
    },
    {
      "inputs": [
        {
          "internalType": "address",
          "name": "account",
          "type": "address"
        }
      ],
      "name": "OwnableUnauthorizedAccount",
      "type": "error"
    },
    {
      "anonymous": false,
      "inputs": [
        {
          "indexed": true,
          "internalType": "address",
          "name": "owner",
          "type": "address"
        },
        {
          "indexed": true,
          "internalType": "address",
          "name": "approved",
          "type": "address"
        },
        {
          "indexed": true,
          "internalType": "uint256",
          "name": "tokenId",
          "type": "uint256"
        }
      ],
      "name": "Approval",
      "type": "event"
    },
    {
      "anonymous": false,
      "inputs": [
        {
          "indexed": true,
          "internalType": "address",
          "name": "owner",
          "type": "address"
        },
        {
          "indexed": true,
          "internalType": "address",
          "name": "operator",
          "type": "address"
        },
        {
          "indexed": false,
          "internalType": "bool",
          "name": "approved",
          "type": "bool"
        }
      ],
      "name": "ApprovalForAll",
      "type": "event"
    },
    {
      "anonymous": false,
      "inputs": [
        {
          "indexed": false,
          "internalType": "uint256",
          "name": "_fromTokenId",
          "type": "uint256"
        },
        {
          "indexed": false,
          "internalType": "uint256",
          "name": "_toTokenId",
          "type": "uint256"
        }
      ],
      "name": "BatchMetadataUpdate",
      "type": "event"
    },
    {
      "anonymous": false,
      "inputs": [
        {
          "indexed": true,
          "internalType": "uint256",
          "name": "tokenId",
          "type": "uint256"
        },
        {
          "indexed": false,
          "internalType": "string",
          "name": "batchNumber",
          "type": "string"
        },
        {
          "indexed": false,
          "internalType": "address",
          "name": "manufacturer",
          "type": "address"
        }
      ],
      "name": "MedicineMinted",
      "type": "event"
    },
    {
      "anonymous": false,
      "inputs": [
        {
          "indexed": false,
          "internalType": "uint256",
          "name": "_tokenId",
          "type": "uint256"
        }
      ],
      "name": "MetadataUpdate",
      "type": "event"
    },
    {
      "anonymous": false,
      "inputs": [
        {
          "indexed": true,
          "internalType": "address",
          "name": "previousOwner",
          "type": "address"
        },
        {
          "indexed": true,
          "internalType": "address",
          "name": "newOwner",
          "type": "address"
        }
      ],
      "name": "OwnershipTransferred",
      "type": "event"
    },
    {
      "anonymous": false,
      "inputs": [
        {
          "indexed": true,
          "internalType": "address",
          "name": "from",
          "type": "address"
        },
        {
          "indexed": true,
          "internalType": "address",
          "name": "to",
          "type": "address"
        },
        {
          "indexed": true,
          "internalType": "uint256",
          "name": "tokenId",
          "type": "uint256"
        }
      ],
      "name": "Transfer",
      "type": "event"
    },
    {
      "inputs": [
        {
          "internalType": "address",
          "name": "to",
          "type": "address"
        },
        {
          "internalType": "uint256",
          "name": "tokenId",
          "type": "uint256"
        }
      ],
      "name": "approve",
      "outputs": [],
      "stateMutability": "nonpayable",
      "type": "function"
    },
    {
      "inputs": [
        {
          "internalType": "address",
          "name": "owner",
          "type": "address"
        }
      ],
      "name": "balanceOf",
      "outputs": [
        {
          "internalType": "uint256",
          "name": "",
          "type": "uint256"
        }
      ],
      "stateMutability": "view",
      "type": "function"
    },
    {
      "inputs": [
        {
          "internalType": "uint256",
          "name": "tokenId",
          "type": "uint256"
        }
      ],
      "name": "getApproved",
      "outputs": [
        {
          "internalType": "address",
          "name": "",
          "type": "address"
        }
      ],
      "stateMutability": "view",
      "type": "function"
    },
    {
      "inputs": [
        {
          "internalType": "address",
          "name": "owner",
          "type": "address"
        },
        {
          "internalType": "address",
          "name": "operator",
          "type": "address"
        }
      ],
      "name": "isApprovedForAll",
      "outputs": [
        {
          "internalType": "bool",
          "name": "",
          "type": "bool"
        }
      ],
      "stateMutability": "view",
      "type": "function"
    },
    {
      "inputs": [
        {
          "internalType": "address",
          "name": "recipient",
          "type": "address"
        },
        {
          "internalType": "string",
          "name": "tokenURI",
          "type": "string"
        },
        {
          "internalType": "string",
          "name": "_medicineId",
          "type": "string"
        },
        {
          "internalType": "string",
          "name": "_batchNumber",
          "type": "string"
        },
        {
          "internalType": "string",
          "name": "_manufacturer",
          "type": "string"
        },
        {
          "internalType": "string",
          "name": "_expiryDate",
          "type": "string"
        },
        {
          "internalType": "string",
          "name": "_manufacturingDate",
          "type": "string"
        }
      ],
      "name": "mintMedicine",
      "outputs": [
        {
          "internalType": "uint256",
          "name": "",
          "type": "uint256"
        }
      ],
      "stateMutability": "nonpayable",
      "type": "function"
    },
    {
      "inputs": [],
      "name": "name",
      "outputs": [
        {
          "internalType": "string",
          "name": "",
          "type": "string"
        }
      ],
      "stateMutability": "view",
      "type": "function"
    },
    {
      "inputs": [],
      "name": "owner",
      "outputs": [
        {
          "internalType": "address",
          "name": "",
          "type": "address"
        }
      ],
      "stateMutability": "view",
      "type": "function"
    },
    {
      "inputs": [
        {
          "internalType": "uint256",
          "name": "tokenId",
          "type": "uint256"
        }
      ],
      "name": "ownerOf",
      "outputs": [
        {
          "internalType": "address",
          "name": "",
          "type": "address"
        }
      ],
      "stateMutability": "view",
      "type": "function"
    },
    {
      "inputs": [],
      "name": "renounceOwnership",
      "outputs": [],
      "stateMutability": "nonpayable",
      "type": "function"
    },
    {
      "inputs": [
        {
          "internalType": "address",
          "name": "from",
          "type": "address"
        },
        {
          "internalType": "address",
          "name": "to",
          "type": "address"
        },
        {
          "internalType": "uint256",
          "name": "tokenId",
          "type": "uint256"
        }
      ],
      "name": "safeTransferFrom",
      "outputs": [],
      "stateMutability": "nonpayable",
      "type": "function"
    },
    {
      "inputs": [
        {
          "internalType": "address",
          "name": "from",
          "type": "address"
        },
        {
          "internalType": "address",
          "name": "to",
          "type": "address"
        },
        {
          "internalType": "uint256",
          "name": "tokenId",
          "type": "uint256"
        },
        {
          "internalType": "bytes",
          "name": "data",
          "type": "bytes"
        }
      ],
      "name": "safeTransferFrom",
      "outputs": [],
      "stateMutability": "nonpayable",
      "type": "function"
    },
    {
      "inputs": [
        {
          "internalType": "address",
          "name": "operator",
          "type": "address"
        },
        {
          "internalType": "bool",
          "name": "approved",
          "type": "bool"
        }
      ],
      "name": "setApprovalForAll",
      "outputs": [],
      "stateMutability": "nonpayable",
      "type": "function"
    },
    {
      "inputs": [
        {
          "internalType": "bytes4",
          "name": "interfaceId",
          "type": "bytes4"
        }
      ],
      "name": "supportsInterface",
      "outputs": [
        {
          "internalType": "bool",
          "name": "",
          "type": "bool"
        }
      ],
      "stateMutability": "view",
      "type": "function"
    },
    {
      "inputs": [],
      "name": "symbol",
      "outputs": [
        {
          "internalType": "string",
          "name": "",
          "type": "string"
        }
      ],
      "stateMutability": "view",
      "type": "function"
    },
    {
      "inputs": [
        {
          "internalType": "uint256",
          "name": "tokenId",
          "type": "uint256"
        }
      ],
      "name": "tokenURI",
      "outputs": [
        {
          "internalType": "string",
          "name": "",
          "type": "string"
        }
      ],
      "stateMutability": "view",
      "type": "function"
    },
    {
      "inputs": [
        {
          "internalType": "address",
          "name": "from",
          "type": "address"
        },
        {
          "internalType": "address",
          "name": "to",
          "type": "address"
        },
        {
          "internalType": "uint256",
          "name": "tokenId",
          "type": "uint256"
        }
      ],
      "name": "transferFrom",
      "outputs": [],
      "stateMutability": "nonpayable",
      "type": "function"
    },
    {
      "inputs": [
        {
          "internalType": "address",
          "name": "newOwner",
          "type": "address"
        }
      ],
      "name": "transferOwnership",
      "outputs": [],
      "stateMutability": "nonpayable",
      "type": "function"
    }
  ],
  "bytecode": "0x60806040523480156200001157600080fd5b50336040518060400160405280600a81526020017f506861726d615363616e000000000000000000000000000000000000000000008152506040518060400160405280600481526020017f5048524d00000000000000000000000000000000000000000000000000000000815250816000908162000090919062000472565b508060019081620000a2919062000472565b505050600073ffffffffffffffffffffffffffffffffffffffff168173ffffffffffffffffffffffffffffffffffffffff16036200011a5760006040517f1e4fbdf70000000000000000000000000000000000000000000000000000000081526004016200011191906200059e565b60405180910390fd5b6200012b816200013260201b60201c565b50620005bb565b6000600760009054906101000a900473ffffffffffffffffffffffffffffffffffffffff16905081600760006101000a81548173ffffffffffffffffffffffffffffffffffffffff021916908373ffffffffffffffffffffffffffffffffffffffff1602179055508173ffffffffffffffffffffffffffffffffffffffff168173ffffffffffffffffffffffffffffffffffffffff167f8be0079c531659141344cd1fd0a4f28419497f9722a3daafe3b4186f6b6457e060405160405180910390a35050565b600081519050919050565b7f4e487b7100000000000000000000000000000000000000000000000000000000600052604160045260246000fd5b7f4e487b7100000000000000000000000000000000000000000000000000000000600052602260045260246000fd5b600060028204905060018216806200027a57607f821691505b60208210810362000290576200028f62000232565b5b50919050565b60008190508160005260206000209050919050565b60006020601f8301049050919050565b600082821b905092915050565b600060088302620002fa7fffffffffffffffffffffffffffffffffffffffffffffffffffffffffffffffff82620002bb565b620003068683620002bb565b95508019841693508086168417925050509392505050565b6000819050919050565b6000819050919050565b6000620003536200034d62000347846200031e565b62000328565b6200031e565b9050919050565b6000819050919050565b6200036f8362000332565b620003876200037e826200035a565b848454620002c8565b825550505050565b600090565b6200039e6200038f565b620003ab81848462000364565b505050565b5b81811015620003d357620003c760008262000394565b600181019050620003b1565b5050565b601f8211156200042257620003ec8162000296565b620003f784620002ab565b8101602085101562000407578190505b6200041f6200041685620002ab565b830182620003b0565b50505b505050565b600082821c905092915050565b6000620004476000198460080262000427565b1980831691505092915050565b600062000462838362000434565b9150826002028217905092915050565b6200047d82620001f8565b67ffffffffffffffff81111562000499576200049862000203565b5b620004a5825462000261565b620004b2828285620003d7565b600060209050601f831160018114620004ea5760008415620004d5578287015190505b620004e1858262000454565b86555062000551565b601f198416620004fa8662000296565b60005b828110156200052457848901518255600182019150602085019450602081019050620004fd565b8683101562000544578489015162000540601f89168262000434565b8355505b6001600288020188555050505b505050505050565b600073ffffffffffffffffffffffffffffffffffffffff82169050919050565b6000620005868262000559565b9050919050565b620005988162000579565b82525050565b6000602082019050620005b560008301846200058d565b92915050565b61279180620005cb6000396000f3fe608060405234801561001057600080fd5b506004361061010b5760003560e01c806370a08231116100a2578063a22cb46511610071578063a22cb465146102b8578063b88d4fde146102d4578063c87b56dd146102f0578063e985e9c514610320578063f2fde38b146103505761010b565b806370a0823114610242578063715018a6146102725780638da5cb5b1461027c57806395d89b411461029a5761010b565b806323b872dd116100de57806323b872dd146101aa5780633b45cd26146101c657806342842e0e146101f65780636352211e146102125761010b565b806301ffc9a71461011057806306fdde0314610140578063081812fc1461015e578063095ea7b31461018e575b600080fd5b61012a60048036038101906101259190611acb565b61036c565b6040516101379190611b13565b60405180910390f35b6101486103cd565b6040516101559190611bbe565b60405180910390f35b61017860048036038101906101739190611c16565b61045f565b6040516101859190611c84565b60405180910390f35b6101a860048036038101906101a39190611ccb565b61047b565b005b6101c460048036038101906101bf9190611d0b565b610491565b005b6101e060048036038101906101db9190611e93565b610593565b6040516101ed9190611fec565b60405180910390f35b610210600480360381019061020b9190611d0b565b61060c565b005b61022c60048036038101906102279190611c16565b61062c565b6040516102399190611c84565b60405180910390f35b61025c60048036038101906102579190612007565b61063e565b6040516102699190611fec565b60405180910390f35b61027a6106f8565b005b61028461070c565b6040516102919190611c84565b60405180910390f35b6102a2610736565b6040516102af9190611bbe565b60405180910390f35b6102d260048036038101906102cd9190612060565b6107c8565b005b6102ee60048036038101906102e99190612141565b6107de565b005b61030a60048036038101906103059190611c16565b610803565b6040516103179190611bbe565b60405180910390f35b61033a600480360381019061033591906121c4565b610916565b6040516103479190611b13565b60405180910390f35b61036a60048036038101906103659190612007565b6109aa565b005b6000634906490660e01b7bffffffffffffffffffffffffffffffffffffffffffffffffffffffff1916827bffffffffffffffffffffffffffffffffffffffffffffffffffffffff191614806103c657506103c582610a30565b5b9050919050565b6060600080546103dc90612233565b80601f016020809104026020016040519081016040528092919081815260200182805461040890612233565b80156104555780601f1061042a57610100808354040283529160200191610455565b820191906000526020600020905b81548152906001019060200180831161043857829003601f168201915b5050505050905090565b600061046a82610b12565b5061047482610b9a565b9050919050565b61048d8282610488610bd7565b610bdf565b5050565b600073ffffffffffffffffffffffffffffffffffffffff168273ffffffffffffffffffffffffffffffffffffffff16036105035760006040517f64a0ae920000000000000000000000000000000000000000000000000000000081526004016104fa9190611c84565b60405180910390fd5b60006105178383610512610bd7565b610bf1565b90508373ffffffffffffffffffffffffffffffffffffffff168173ffffffffffffffffffffffffffffffffffffffff161461058d578382826040517f64283d7b00000000000000000000000000000000000000000000000000000000815260040161058493929190612264565b60405180910390fd5b50505050565b600080600860008154809291906105a9906122ca565b9190505590506105b98982610e0b565b6105c38189610f04565b807f798effe2ee3e78bb3a8e8fbc1ad1944f4119ac6297c2b00c9e351696e3a8d3a587336040516105f5929190612312565b60405180910390a280915050979650505050505050565b610627838383604051806020016040528060008152506107de565b505050565b600061063782610b12565b9050919050565b60008073ffffffffffffffffffffffffffffffffffffffff168273ffffffffffffffffffffffffffffffffffffffff16036106b15760006040517f89c62b640000000000000000000000000000000000000000000000000000000081526004016106a89190611c84565b60405180910390fd5b600360008373ffffffffffffffffffffffffffffffffffffffff1673ffffffffffffffffffffffffffffffffffffffff168152602001908152602001600020549050919050565b610700610f60565b61070a6000610fe7565b565b6000600760009054906101000a900473ffffffffffffffffffffffffffffffffffffffff16905090565b60606001805461074590612233565b80601f016020809104026020016040519081016040528092919081815260200182805461077190612233565b80156107be5780601f10610793576101008083540402835291602001916107be565b820191906000526020600020905b8154815290600101906020018083116107a157829003601f168201915b5050505050905090565b6107da6107d3610bd7565b83836110ad565b5050565b6107e9848484610491565b6107fd6107f4610bd7565b8585858561121c565b50505050565b606061080e82610b12565b50600060066000848152602001908152602001600020805461082f90612233565b80601f016020809104026020016040519081016040528092919081815260200182805461085b90612233565b80156108a85780601f1061087d576101008083540402835291602001916108a8565b820191906000526020600020905b81548152906001019060200180831161088b57829003601f168201915b5050505050905060006108b96113cd565b905060008151036108ce578192505050610911565b6000825111156109035780826040516020016108eb92919061237e565b60405160208183030381529060405292505050610911565b61090c846113e4565b925050505b919050565b6000600560008473ffffffffffffffffffffffffffffffffffffffff1673ffffffffffffffffffffffffffffffffffffffff16815260200190815260200160002060008373ffffffffffffffffffffffffffffffffffffffff1673ffffffffffffffffffffffffffffffffffffffff16815260200190815260200160002060009054906101000a900460ff16905092915050565b6109b2610f60565b600073ffffffffffffffffffffffffffffffffffffffff168173ffffffffffffffffffffffffffffffffffffffff1603610a245760006040517f1e4fbdf7000000000000000000000000000000000000000000000000000000008152600401610a1b9190611c84565b60405180910390fd5b610a2d81610fe7565b50565b60007f80ac58cd000000000000000000000000000000000000000000000000000000007bffffffffffffffffffffffffffffffffffffffffffffffffffffffff1916827bffffffffffffffffffffffffffffffffffffffffffffffffffffffff19161480610afb57507f5b5e139f000000000000000000000000000000000000000000000000000000007bffffffffffffffffffffffffffffffffffffffffffffffffffffffff1916827bffffffffffffffffffffffffffffffffffffffffffffffffffffffff1916145b80610b0b5750610b0a8261144d565b5b9050919050565b600080610b1e836114b7565b9050600073ffffffffffffffffffffffffffffffffffffffff168173ffffffffffffffffffffffffffffffffffffffff1603610b9157826040517f7e273289000000000000000000000000000000000000000000000000000000008152600401610b889190611fec565b60405180910390fd5b80915050919050565b60006004600083815260200190815260200160002060009054906101000a900473ffffffffffffffffffffffffffffffffffffffff169050919050565b600033905090565b610bec83838360016114f4565b505050565b600080610bfd846114b7565b9050600073ffffffffffffffffffffffffffffffffffffffff168373ffffffffffffffffffffffffffffffffffffffff1614610c3f57610c3e8184866116b9565b5b600073ffffffffffffffffffffffffffffffffffffffff168173ffffffffffffffffffffffffffffffffffffffff1614610cd057610c816000856000806114f4565b6001600360008373ffffffffffffffffffffffffffffffffffffffff1673ffffffffffffffffffffffffffffffffffffffff168152602001908152602001600020600082825403925050819055505b600073ffffffffffffffffffffffffffffffffffffffff168573ffffffffffffffffffffffffffffffffffffffff1614610d53576001600360008773ffffffffffffffffffffffffffffffffffffffff1673ffffffffffffffffffffffffffffffffffffffff168152602001908152602001600020600082825401925050819055505b846002600086815260200190815260200160002060006101000a81548173ffffffffffffffffffffffffffffffffffffffff021916908373ffffffffffffffffffffffffffffffffffffffff160217905550838573ffffffffffffffffffffffffffffffffffffffff168273ffffffffffffffffffffffffffffffffffffffff167fddf252ad1be2c89b69c2b068fc378daa952ba7f163c4a11628f55a4df523b3ef60405160405180910390a4809150509392505050565b600073ffffffffffffffffffffffffffffffffffffffff168273ffffffffffffffffffffffffffffffffffffffff1603610e7d5760006040517f64a0ae92000000000000000000000000000000000000000000000000000000008152600401610e749190611c84565b60405180910390fd5b6000610e8b83836000610bf1565b9050600073ffffffffffffffffffffffffffffffffffffffff168173ffffffffffffffffffffffffffffffffffffffff1614610eff5760006040517f73c6ac6e000000000000000000000000000000000000000000000000000000008152600401610ef69190611c84565b60405180910390fd5b505050565b80600660008481526020019081526020016000209081610f24919061254e565b507ff8e1a15aba9398e019f0b49df1a4fde98ee17ae345cb5f6b5e2c27f5033e8ce782604051610f549190611fec565b60405180910390a15050565b610f68610bd7565b73ffffffffffffffffffffffffffffffffffffffff16610f8661070c565b73ffffffffffffffffffffffffffffffffffffffff1614610fe557610fa9610bd7565b6040517f118cdaa7000000000000000000000000000000000000000000000000000000008152600401610fdc9190611c84565b60405180910390fd5b565b6000600760009054906101000a900473ffffffffffffffffffffffffffffffffffffffff16905081600760006101000a81548173ffffffffffffffffffffffffffffffffffffffff021916908373ffffffffffffffffffffffffffffffffffffffff1602179055508173ffffffffffffffffffffffffffffffffffffffff168173ffffffffffffffffffffffffffffffffffffffff167f8be0079c531659141344cd1fd0a4f28419497f9722a3daafe3b4186f6b6457e060405160405180910390a35050565b600073ffffffffffffffffffffffffffffffffffffffff168273ffffffffffffffffffffffffffffffffffffffff160361111e57816040517f5b08ba180000000000000000000000000000000000000000000000000000000081526004016111159190611c84565b60405180910390fd5b80600560008573ffffffffffffffffffffffffffffffffffffffff1673ffffffffffffffffffffffffffffffffffffffff16815260200190815260200160002060008473ffffffffffffffffffffffffffffffffffffffff1673ffffffffffffffffffffffffffffffffffffffff16815260200190815260200160002060006101000a81548160ff0219169083151502179055508173ffffffffffffffffffffffffffffffffffffffff168373ffffffffffffffffffffffffffffffffffffffff167f17307eab39ab6107e8899845ad3d59bd9653f200f220920489ca2b5937696c318360405161120f9190611b13565b60405180910390a3505050565b60008373ffffffffffffffffffffffffffffffffffffffff163b11156113c6578273ffffffffffffffffffffffffffffffffffffffff1663150b7a02868685856040518563ffffffff1660e01b815260040161127b9493929190612675565b6020604051808303816000875af19250505080156112b757506040513d601f19601f820116820180604052508101906112b491906126d6565b60015b61133b573d80600081146112e7576040519150601f19603f3d011682016040523d82523d6000602084013e6112ec565b606091505b50600081510361133357836040517f64a0ae9200000000000000000000000000000000000000000000000000000000815260040161132a9190611c84565b60405180910390fd5b805160208201fd5b63150b7a0260e01b7bffffffffffffffffffffffffffffffffffffffffffffffffffffffff1916817bffffffffffffffffffffffffffffffffffffffffffffffffffffffff1916146113c457836040517f64a0ae920000000000000000000000000000000000000000000000000000000081526004016113bb9190611c84565b60405180910390fd5b505b5050505050565b606060405180602001604052806000815250905090565b60606113ef82610b12565b5060006113fa6113cd565b9050600081511161141a5760405180602001604052806000815250611445565b806114248461177d565b60405160200161143592919061237e565b6040516020818303038152906040525b915050919050565b60007f01ffc9a7000000000000000000000000000000000000000000000000000000007bffffffffffffffffffffffffffffffffffffffffffffffffffffffff1916827bffffffffffffffffffffffffffffffffffffffffffffffffffffffff1916149050919050565b60006002600083815260200190815260200160002060009054906101000a900473ffffffffffffffffffffffffffffffffffffffff169050919050565b808061152d5750600073ffffffffffffffffffffffffffffffffffffffff168273ffffffffffffffffffffffffffffffffffffffff1614155b1561166157600061153d84610b12565b9050600073ffffffffffffffffffffffffffffffffffffffff168373ffffffffffffffffffffffffffffffffffffffff16141580156115a857508273ffffffffffffffffffffffffffffffffffffffff168173ffffffffffffffffffffffffffffffffffffffff1614155b80156115bb57506115b98184610916565b155b156115fd57826040517fa9fbf51f0000000000000000000000000000000000000000000000000000000081526004016115f49190611c84565b60405180910390fd5b811561165f57838573ffffffffffffffffffffffffffffffffffffffff168273ffffffffffffffffffffffffffffffffffffffff167f8c5be1e5ebec7d5bd14f71427d1e84f3dd0314c0f7b2291e5b200ac8c7c3b92560405160405180910390a45b505b836004600085815260200190815260200160002060006101000a81548173ffffffffffffffffffffffffffffffffffffffff021916908373ffffffffffffffffffffffffffffffffffffffff16021790555050505050565b6116c483838361184b565b61177857600073ffffffffffffffffffffffffffffffffffffffff168373ffffffffffffffffffffffffffffffffffffffff160361173957806040517f7e2732890000000000000000000000000000000000000000000000000000000081526004016117309190611fec565b60405180910390fd5b81816040517f177e802f00000000000000000000000000000000000000000000000000000000815260040161176f929190612703565b60405180910390fd5b505050565b60606000600161178c8461190c565b01905060008167ffffffffffffffff8111156117ab576117aa611d68565b5b6040519080825280601f01601f1916602001820160405280156117dd5781602001600182028036833780820191505090505b509050600082602083010190505b600115611840578080600190039150507f3031323334353637383961626364656600000000000000000000000000000000600a86061a8153600a85816118345761183361272c565b5b049450600085036117eb575b819350505050919050565b60008073ffffffffffffffffffffffffffffffffffffffff168373ffffffffffffffffffffffffffffffffffffffff161415801561190357508273ffffffffffffffffffffffffffffffffffffffff168473ffffffffffffffffffffffffffffffffffffffff1614806118c457506118c38484610916565b5b8061190257508273ffffffffffffffffffffffffffffffffffffffff166118ea83610b9a565b73ffffffffffffffffffffffffffffffffffffffff16145b5b90509392505050565b600080600090507a184f03e93ff9f4daa797ed6e38ed64bf6a1f010000000000000000831061196a577a184f03e93ff9f4daa797ed6e38ed64bf6a1f01000000000000000083816119605761195f61272c565b5b0492506040810190505b6d04ee2d6d415b85acef810000000083106119a7576d04ee2d6d415b85acef8100000000838161199d5761199c61272c565b5b0492506020810190505b662386f26fc1000083106119d657662386f26fc1000083816119cc576119cb61272c565b5b0492506010810190505b6305f5e10083106119ff576305f5e10083816119f5576119f461272c565b5b0492506008810190505b6127108310611a24576127108381611a1a57611a1961272c565b5b0492506004810190505b60648310611a475760648381611a3d57611a3c61272c565b5b0492506002810190505b600a8310611a56576001810190505b80915050919050565b6000604051905090565b600080fd5b600080fd5b60007fffffffff0000000000000000000000000000000000000000000000000000000082169050919050565b611aa881611a73565b8114611ab357600080fd5b50565b600081359050611ac581611a9f565b92915050565b600060208284031215611ae157611ae0611a69565b5b6000611aef84828501611ab6565b91505092915050565b60008115159050919050565b611b0d81611af8565b82525050565b6000602082019050611b286000830184611b04565b92915050565b600081519050919050565b600082825260208201905092915050565b60005b83811015611b68578082015181840152602081019050611b4d565b60008484015250505050565b6000601f19601f8301169050919050565b6000611b9082611b2e565b611b9a8185611b39565b9350611baa818560208601611b4a565b611bb381611b74565b840191505092915050565b60006020820190508181036000830152611bd88184611b85565b905092915050565b6000819050919050565b611bf381611be0565b8114611bfe57600080fd5b50565b600081359050611c1081611bea565b92915050565b600060208284031215611c2c57611c2b611a69565b5b6000611c3a84828501611c01565b91505092915050565b600073ffffffffffffffffffffffffffffffffffffffff82169050919050565b6000611c6e82611c43565b9050919050565b611c7e81611c63565b82525050565b6000602082019050611c996000830184611c75565b92915050565b611ca881611c63565b8114611cb357600080fd5b50565b600081359050611cc581611c9f565b92915050565b60008060408385031215611ce257611ce1611a69565b5b6000611cf085828601611cb6565b9250506020611d0185828601611c01565b9150509250929050565b600080600060608486031215611d2457611d23611a69565b5b6000611d3286828701611cb6565b9350506020611d4386828701611cb6565b9250506040611d5486828701611c01565b9150509250925092565b600080fd5b600080fd5b7f4e487b7100000000000000000000000000000000000000000000000000000000600052604160045260246000fd5b611da082611b74565b810181811067ffffffffffffffff82111715611dbf57611dbe611d68565b5b80604052505050565b6000611dd2611a5f565b9050611dde8282611d97565b919050565b600067ffffffffffffffff821115611dfe57611dfd611d68565b5b611e0782611b74565b9050602081019050919050565b82818337600083830152505050565b6000611e36611e3184611de3565b611dc8565b905082815260208101848484011115611e5257611e51611d63565b5b611e5d848285611e14565b509392505050565b600082601f830112611e7a57611e79611d5e565b5b8135611e8a848260208601611e23565b91505092915050565b600080600080600080600060e0888a031215611eb257611eb1611a69565b5b6000611ec08a828b01611cb6565b975050602088013567ffffffffffffffff811115611ee157611ee0611a6e565b5b611eed8a828b01611e65565b965050604088013567ffffffffffffffff811115611f0e57611f0d611a6e565b5b611f1a8a828b01611e65565b955050606088013567ffffffffffffffff811115611f3b57611f3a611a6e565b5b611f478a828b01611e65565b945050608088013567ffffffffffffffff811115611f6857611f67611a6e565b5b611f748a828b01611e65565b93505060a088013567ffffffffffffffff811115611f9557611f94611a6e565b5b611fa18a828b01611e65565b92505060c088013567ffffffffffffffff811115611fc257611fc1611a6e565b5b611fce8a828b01611e65565b91505092959891949750929550565b611fe681611be0565b82525050565b60006020820190506120016000830184611fdd565b92915050565b60006020828403121561201d5761201c611a69565b5b600061202b84828501611cb6565b91505092915050565b61203d81611af8565b811461204857600080fd5b50565b60008135905061205a81612034565b92915050565b6000806040838503121561207757612076611a69565b5b600061208585828601611cb6565b92505060206120968582860161204b565b9150509250929050565b600067ffffffffffffffff8211156120bb576120ba611d68565b5b6120c482611b74565b9050602081019050919050565b60006120e46120df846120a0565b611dc8565b905082815260208101848484011115612100576120ff611d63565b5b61210b848285611e14565b509392505050565b600082601f83011261212857612127611d5e565b5b81356121388482602086016120d1565b91505092915050565b6000806000806080858703121561215b5761215a611a69565b5b600061216987828801611cb6565b945050602061217a87828801611cb6565b935050604061218b87828801611c01565b925050606085013567ffffffffffffffff8111156121ac576121ab611a6e565b5b6121b887828801612113565b91505092959194509250565b600080604083850312156121db576121da611a69565b5b60006121e985828601611cb6565b92505060206121fa85828601611cb6565b9150509250929050565b7f4e487b7100000000000000000000000000000000000000000000000000000000600052602260045260246000fd5b6000600282049050600182168061224b57607f821691505b60208210810361225e5761225d612204565b5b50919050565b60006060820190506122796000830186611c75565b6122866020830185611fdd565b6122936040830184611c75565b949350505050565b7f4e487b7100000000000000000000000000000000000000000000000000000000600052601160045260246000fd5b60006122d582611be0565b91507fffffffffffffffffffffffffffffffffffffffffffffffffffffffffffffffff82036123075761230661229b565b5b600182019050919050565b6000604082019050818103600083015261232c8185611b85565b905061233b6020830184611c75565b9392505050565b600081905092915050565b600061235882611b2e565b6123628185612342565b9350612372818560208601611b4a565b80840191505092915050565b600061238a828561234d565b9150612396828461234d565b91508190509392505050565b60008190508160005260206000209050919050565b60006020601f8301049050919050565b600082821b905092915050565b6000600883026124047fffffffffffffffffffffffffffffffffffffffffffffffffffffffffffffffff826123c7565b61240e86836123c7565b95508019841693508086168417925050509392505050565b6000819050919050565b600061244b61244661244184611be0565b612426565b611be0565b9050919050565b6000819050919050565b61246583612430565b61247961247182612452565b8484546123d4565b825550505050565b600090565b61248e612481565b61249981848461245c565b505050565b5b818110156124bd576124b2600082612486565b60018101905061249f565b5050565b601f821115612502576124d3816123a2565b6124dc846123b7565b810160208510156124eb578190505b6124ff6124f7856123b7565b83018261249e565b50505b505050565b600082821c905092915050565b600061252560001984600802612507565b1980831691505092915050565b600061253e8383612514565b9150826002028217905092915050565b61255782611b2e565b67ffffffffffffffff8111156125705761256f611d68565b5b61257a8254612233565b6125858282856124c1565b600060209050601f8311600181146125b857600084156125a6578287015190505b6125b08582612532565b865550612618565b601f1984166125c6866123a2565b60005b828110156125ee578489015182556001820191506020850194506020810190506125c9565b8683101561260b5784890151612607601f891682612514565b8355505b6001600288020188555050505b505050505050565b600081519050919050565b600082825260208201905092915050565b600061264782612620565b612651818561262b565b9350612661818560208601611b4a565b61266a81611b74565b840191505092915050565b600060808201905061268a6000830187611c75565b6126976020830186611c75565b6126a46040830185611fdd565b81810360608301526126b6818461263c565b905095945050505050565b6000815190506126d081611a9f565b92915050565b6000602082840312156126ec576126eb611a69565b5b60006126fa848285016126c1565b91505092915050565b60006040820190506127186000830185611c75565b6127256020830184611fdd565b9392505050565b7f4e487b7100000000000000000000000000000000000000000000000000000000600052601260045260246000fdfea2646970667358221220f827deeceadde5ca1ee1fb43165f078f1a8f8fa24d94cbf1bc9b340d9eba133864736f6c63430008140033",
  "linkReferences": {},
  "deployedLinkReferences": {}
}